:020000040000FA
:04000000FFEF1EF000
:08000800056ED8CF06F0E0CF31
:1000100007F00001E9CF0DF0EACF08F0E1CF09F0D9
:10002000E2CF0AF0D9CF0BF0DACF0CF0F3CF14F017
:10003000F4CF15F0FACF16F000C00FF001C010F0A9
:1000400002C011F003C012F004C013F09DA02CEF09
:1000500000F09EB012EF05F0F2A832EF00F0F2B21D
:1000600073EF05F0F0A638EF00F0F0B078EF05F090
:100070000FC000F010C001F011C002F012C003F078
:1000800013C004F00DC0E9FF08C0EAFF09C0E1FF9A
:100090000AC0E2FF0BC0D9FF0CC0DAFF14C0F3FFA7
:1000A00015C0F4FF16C0FAFF055007C0E0FF06C0F8
:1000B000D8FF1000F2CF0EF0F29EF76ACE0FF66E68
:1000C000000EF7220900F5500EBEF28E1200444FCA
:1000D0004D000000000000004C554E0000000000E4
:1000E00000004D4152000000000000004D49450055
:1000F0000000000000004A5545000000000000001C
:100100005649450000000000000053414200000035
:1001100000000000F2CF0EF0F29EF76A2E0FF66E8E
:10012000010EF7220900F5500EBEF28E12002C0FC0
:100130000106F2CF0EF0F29EF76A4C0FF66E010E3A
:10014000F7220900F5500EBEF28E120001020304E0
:1001500005060708090A000AF2CF0EF0F29EF76AB8
:10016000720FF66E010EF7220900F5500EBEF28EE8
:1001700012004D454E552044454C2053495354459B
:100180004D410000F2CF0EF0F29EF76A9E0FF66E20
:10019000010EF7220900F5500EBEF28E12004465E2
:1001A00070757261646F7261202020202020000031
:1001B000F2CF0EF0F29EF76ACA0FF66E010EF7222A
:1001C0000900F5500EBEF28E120054656D70657216
:1001D000617475726120616775610000F2CF0EF085
:1001E000F29EF76AF60FF66E010EF7220900F5503F
:1001F0000EBEF28E12004E6976656C20636C6F72D3
:100200006F20202020200000F2CF0EF0F29EF76A2F
:10021000220FF66E020EF7220900F5500EBEF28E86
:1002200012004E6976656C20747572626964657A35
:1002300020200000F2CF0EF0F29EF76A4E0FF66E0D
:10024000020EF7220900F5500EBEF28E1200486F22
:10025000726120696E2E3A2025753A257500F2CF1D
:100260000EF0F29EF76A780FF66E020EF722090082
:10027000F5500EBEF28E12004D6F646966696361BF
:10028000723F0000F2CF0EF0F29EF76A9E0FF66EFC
:10029000020EF7220900F5500EBEF28E1200486FD2
:1002A00072612066696E3A2025753A257500F2CF95
:1002B0000EF0F29EF76AC80FF66E020EF7220900E2
:1002C000F5500EBEF28E12004E7565766120686F95
:1002D000726120696E69632E0000F2CF0EF0F29E0B
:1002E000F76AF40FF66E020EF7220900F5500EBE03
:1002F000F28E12004E7565766120686F726120661D
:10030000696E0000F2CF0EF0F29EF76A1E0FF66ED5
:10031000030EF7220900F5500EBEF28E1200466F52
:10032000726D61746F3A2058583A58580000F2CFF5
:100330000EF0F29EF76A480FF66E030EF7220900E0
:10034000F5500EBEF28E120054656D702E2064655D
:10035000732E3A2025322E316600F2CF0EF0F29E37
:10036000F76A740FF66E030EF7220900F5500EBE01
:10037000F28E1200496E74726F64757A6361207434
:10038000656D702E0000F2CF0EF0F29EF76AA00F9E
:10039000F66E030EF7220900F5500EBEF28E120023
:1003A000466F726D61746F3A2058582E5800F2CF24
:1003B0000EF0F29EF76AC80FF66E030EF7220900E0
:1003C000F5500EBEF28E1200436C6F726F2E2064D9
:1003D00065732E3A2025312E31660000F2CF0EF0E3
:1003E000F29EF76AF60FF66E030EF7220900F5503B
:1003F0000EBEF28E12004E7565766F206E762E2040
:10040000636C6F726F00F2CF0EF0F29EF76A200FEE
:10041000F66E040EF7220900F5500EBEF28E1200A1
:10042000466F726D61746F3A20582E580000F2CFFB
:100430000EF0F29EF76A480FF66E040EF7220900DE
:10044000F5500EBEF28E120054757262692E206451
:1004500065732E3A2025312E31660000F2CF0EF062
:10046000F29EF76A760FF66E040EF7220900F55039
:100470000EBEF28E12004E7565766F206E762E20BF
:10048000747572622E00F2CF0EF0F29EF76AA00F22
:10049000F66E040EF7220900F5500EBEF28E120021
:1004A000434C4F524F3A2025332E3266200A545582
:1004B00052424944455A3A2025332E3266200000E4
:1004C000F2CF0EF0F29EF76ADA0FF66E040EF72204
:1004D0000900F5500EBEF28E120054454D503A20E0
:1004E00025332E316620256343200A486F72613A16
:1004F0002025753A2532753A25327500F2CF0EF077
:10050000F29EF76A160FF66E050EF7220900F550F7
:100510000EBEF28E12004C656374757261206465C4
:1005200020456570726F6D20686563686120612089
:100530006C61732025753A2532753A2532750A0D9E
:100540000A0D0000F2CF0EF0F29EF76A5E0FF66E13
:10055000050EF7220900F5500EBEF28E1200486F0C
:10056000726120696E6963696F206369636C6F20D3
:10057000646570757261646F72613A2025753A2501
:10058000750A0D00F2CF0EF0F29EF76A9E0FF66E1E
:10059000050EF7220900F5500EBEF28E1200486FCC
:1005A00072612066696E206369636C6F2064657098
:1005B000757261646F72613A2025753A25750A0D6E
:1005C0000000F2CF0EF0F29EF76ADC0FF66E050E19
:1005D000F7220900F5500EBEF28E120054656D70C0
:1005E00065726174757261206D696E696D612064F8
:1005F0006573656164613A2025322E31660A0D000B
:10060000F2CF0EF0F29EF76A1A0FF66E060EF72280
:100610000900F5500EBEF28E12004E6976656C2010
:100620006D696E696D6F20646520636C6F726F20F9
:100630006578696769646F3A2025312E31660A0D45
:100640000000F2CF0EF0F29EF76A5C0FF66E060E17
:10065000F7220900F5500EBEF28E12004E69766543
:100660006C206D6178696D6F2064652074757262AD
:100670006964657A207065726D69746964613A2095
:1006800025312E31660A0D00F2CF0EF0F29EF76A88
:10069000A20FF66E060EF7220900F5500EBEF28E7E
:1006A00012002D2D2D2D2D2D2D2D2D2D2D2D2D2DC2
:1006B0002D2D2D2D2D2D2D2D2D2D2D2D2D2D2D2D6A
:1006C0002D2D2D2D2D2D0A0D0000F2CF0EF0F29EB6
:1006D000F76AE40FF66E060EF7220900F5500EBE1B
:1006E000F28E12004269656E76656E69646F2061F4
:1006F0006C2073697374656D6120646520636F6E2F
:1007000074726F6C206465206C612070697363691A
:100710006E610A0D0A0D0A0D0000F2CF0EF0F29E76
:10072000F76A340FF66E070EF7220900F5500EBE79
:10073000F28E1200486F72612061637475616C3FC4
:1007400000007CC083F08051831B83AF05D0D89418
:10075000D8907CBED8802FD07CC083F07FC084F03E
:100760007B50845F06E083AF26D0D850010AD86E54
:1007700022D080C084F07C50845F06E083AF1BD021
:10078000D850010AD86E17D081C084F07D50845FA4
:1007900006E083AF10D0D850010AD86E0CD082C0CA
:1007A00084F07E50845F06E083AF05D0D850010A04
:1007B000D86E01D0D890000C800ED8B2801B856B0B
:1007C000866B7CC084F08051841B7B50D8B4DCD015
:1007D000836F006E7F50D8B4E0D0835FD8B481D0EF
:1007E0003DE380C089F0898F81C088F082C087F0A6
:1007F000866BD8908933883387338633832FF8D735
:1008000084AF03D08581DDD0859183918589EA6AA3
:100810007E0EE96EE9D0859984BF0AD083A113D0FA
:100820008933883387338633002AD8B4C5D00BD0B8
:1008300089BF0CD0D890863787378837893700062C
:10084000D8B4BAD0F5D7858D6BD0859D7CC084F0A7
:100850007CAE02D0898FA9D0899FA7D07FC083F0BA
:100860007FC000F07B50835F7CC089F0898F7DC0A2
:1008700088F07EC087F0866BD890893388338733C1
:100880008633832FF8D784AF03D085839AD085939E
:100890008391858BEA6A820EE96EA6D0859B84BF20
:1008A0000AD083A113D08933883387338633002A53
:1008B000D8B482D00BD089BF0CD0D8908637873778
:1008C000883789370006D8B477D0F5D7858F28D0F8
:1008D000859F80C084F080AF02D0898F66D0899FC9
:1008E00064D080C089F0898F81C088F082C087F091
:1008F00084AF04D0899F858564D08595866B83916C
:10090000EA6A7E0EE96E70D084BF1CD07CC084F091
:1009100083A106D08933883387338633002A4CE09D
:1009200086AF0BD0872B09E1882B07E1892B05E1E6
:10093000893388338733002A3FE085BD86D785BF5A
:10094000C7D71CD0800E891B89AF04D03AD080C095
:1009500084F00AD07CC084F0895306E1885304E116
:10096000875302E1006A21D089BF08D0D89086372A
:10097000873788378937002EF7D71ED084AF02D04B
:10098000898F13D0899F11D07FC000F080C089F07B
:1009900081C088F082C087F008D07BC000F07CC0A6
:1009A00089F07DC088F07EC087F089C001F088C0E2
:1009B00002F087C003F034D0006A016A026A036A59
:1009C0002FD0866B871F881F891F861F862B05E106
:1009D000872B03E1882B01E1892B85B115D785B3DE
:1009E00056D785B58AD7B3D7EF50872705E3882B2D
:1009F00003E1892BD8B48381ED52EF50882703E3BC
:100A0000892BD8B48381ED52EF50EFBE01D0800A1C
:100A10008927D8B0838185B9FED685BB3FD774D7E7
:100A20000000000C3C0ECF6EB00ECE6E7E6A7D6A6A
:100A30007C6A7B6A28C082F027C081F026C080F0E3
:100A400025C07FF07EDE1DE3D88228C07EF027C05F
:100A50007DF026C07CF025C07BF0CD0E826FCC0EE1
:100A6000816F4C0E806F7B0E7F6EA6DE03C028F078
:100A700002C027F001C026F000C025F094928B82BE
:100A800002D094928B927E6A7D6A7C6A7B6A2CC0CB
:100A900082F02BC081F02AC080F029C07FF051DEA7
:100AA0001DE3D8822CC07EF02BC07DF02AC07CF0E4
:100AB00029C07BF0CD0E826FCC0E816F4C0E806F03
:100AC0007B0E7F6E79DE03C02CF002C02BF001C0DC
:100AD0002AF000C029F094948B8402D094948B94D3
:100AE0009E9038EF00F0010E326EF29238EF00F077
:100AF000010E316EF09038EF00F0EA6A750EE96E83
:100B0000EF5012E0020E016EBF0E006E0400002EC8
:100B1000FDD7012EF9D7960E006E002EFED70000ED
:100B200000000400EF2EEED7000C7638F00B006EBC
:100B30000F0E81140010816E0000818604000000F9
:100B4000000000008196000C090E765E0BE3EA6A55
:100B5000760EE96ED890EF32EF5004E001D0040039
:100B6000EF2EFDD7000C81940400020E756EC5DFD8
:100B7000090E756E6D0E766EE7DF752EFBD773A0CE
:100B8000819473B081840000000081967438756E82
:100B90000F0E751675C076F0C8DF74500F0B756EAA
:100BA000766EC3DF000C030E936E81948196320E35
:100BB000756EA3DF020E766EB8DF050E756E9DDFD3
:100BC000526A5250030812E3036A5250F2CF53F0B4
:100BD000F29E8AEC00F053BEF28E546E736A746E0D
:100BE000C2DF050E756E89DF522AEBD742EF1FF088
:100BF000080E016E0000000000008B969496000025
:100C0000000000006A368B98D8B09488D8A09498D9
:100C1000948682A6FED7012EEDD7000000008B96A9
:100C2000949600009488000000000000000000007E
:100C30000000948682A6FED7016A00000000000032
:100C400082B801808B9694968B989498000C080E2D
:100C50006B6E00C06CF09488000000000000948669
:100C600082A6FED782B8D88082A8D890013600002C
:100C7000000094968B966B2EEED7948800000000AF
:100C800000008B986C50D8A494980000948682A69B
:100C9000FED7000000008B96949600000000000034
:100CA0008B989498000C636A6250090805E20A0E5A
:100CB000625E100E632603D06250632601D0F4D723
:100CC00063C001F0000C94880000000094860000CE
:100CD000000000008B989498000000008B9694967A
:100CE000A00E6A6E85DF68C06AF082DF69C06AF0B4
:100CF0007FDF94980000948682A6FED70000000053
:100D0000000000000000948800000000000C5A5011
:100D1000E96E5BC0EAFFEFCF61F061C062F0C3DF54
:100D200001C05CF0010E5A24E96E000E5B20EA6EF1
:100D3000EFCF61F061C062F0B6DF01C05DF0020E7E
:100D40005A24E96E000E5B20EA6EEFCF61F061C0BD
:100D500062F0A9DF01C05EF0030E5A24E96E000EB6
:100D60005B20EA6EEFCF61F061C062F09CDF050EA0
:100D70005A24E96E000E5B20EA6EEF38006E0036F2
:100D80000036C00E0016005001105F6E040E5A248B
:100D9000E96E000E5B20EA6EEFCF61F061C062F099
:100DA00082DF060E5A24E96E000E5B20EA6EEF38F1
:100DB000006E0036E00E001600500110606E090E45
:100DC000686E696A80DF0A0E686E5CC069F07BDF5E
:100DD0000B0E686E5DC069F076DF0C0E686E5EC04B
:100DE00069F071DF0D0E686E5FC069F06CDF0E0E8A
:100DF000686E60C069F067DF000C190E536E1D0E3F
:100E0000546E210E556EF2CF5AF0F29E9E0EA96ED0
:100E1000A69CA69EA680A8505ABEF28E566EF2CF11
:100E20005AF0F29E9F0EA96EA69CA69EA680A85080
:100E30005ABEF28E576E948800000000948600001F
:100E4000000000008B989498000000008B96949608
:100E5000AE0E6A6ECDDE6A6ACBDE9E0E6A6EC8DEAC
:100E6000948800000000948600000000000082A624
:100E7000FED78B989498000000008B969496AF0E46
:100E80006A6EB6DE010E006EE2DE01C058F0006A46
:100E9000DEDE01C059F094980000948682A6FED749
:100EA0000000000000000000000094880000000026
:100EB0005650AB08D8A40AD15750CD08D8A406D1B3
:100EC000F2CF5AF0F29EA00EA96EA69CA69EA68016
:100ED000A8505ABEF28E2D6EF2CF5AF0F29EA10E9D
:100EE000A96EA69CA69EA680A8505ABEF28E2E6E13
:100EF000F2CF5AF0F29EA20EA96EA69CA69EA680E4
:100F0000A8505ABEF28E2F6EF2CF5AF0F29EA30E68
:100F1000A96EA69CA69EA680A8505ABEF28E306EE0
:100F2000036A53C0E9FF03C0EAFFF2CF5CF0F29E10
:100F3000A40EA96EA69CA69EA680A8505CBEF28EAA
:100F4000EF6E010E5324036AE96E03C0EAFFF2CF8D
:100F50005CF0F29EA50EA96EA69CA69EA680A85047
:100F60005CBEF28EEF6E020E5324036AE96E03C07C
:100F7000EAFFF2CF5CF0F29EA60EA96EA69CA69E9A
:100F8000A680A8505CBEF28EEF6E030E5324036A57
:100F9000E96E03C0EAFFF2CF5CF0F29EA70EA96EE5
:100FA000A69CA69EA680A8505CBEF28EEF6E036A39
:100FB00054C0E9FF03C0EAFFF2CF5CF0F29EA80E36
:100FC000A96EA69CA69EA680A8505CBEF28EEF6E6F
:100FD000010E5424036AE96E03C0EAFFF2CF5CF00D
:100FE000F29EA90EA96EA69CA69EA680A8505CBEE5
:100FF000F28EEF6E020E5424036AE96E03C0EAFF1C
:10100000F2CF5CF0F29EAA0EA96EA69CA69EA680C8
:10101000A8505CBEF28EEF6E030E5424036AE96E94
:1010200003C0EAFFF2CF5CF0F29EAB0EA96EA69C65
:10103000A69EA680A8505CBEF28EEF6E036A55C0D5
:10104000E9FF03C0EAFFF2CF5CF0F29EAC0EA96E9E
:10105000A69CA69EA680A8505CBEF28EEF6E010EE6
:101060005524036AE96E03C0EAFFF2CF5CF0F29EFA
:10107000AD0EA96EA69CA69EA680A8505CBEF28E60
:10108000EF6E020E5524036AE96E03C0EAFFF2CF49
:101090005CF0F29EAE0EA96EA69CA69EA680A850FD
:1010A0005CBEF28EEF6E030E5524036AE96E03C038
:1010B000EAFFF2CF5CF0F29EAF0EA96EA69CA69E50
:1010C000A680A8505CBEF28EEF6EE9D05850AB08F7
:1010D000D8A4CDD05950CD08D8A4C9D09488000048
:1010E000000094860000000000008B989498000097
:1010F00000008B969496AE0E6A6E7ADD6A6A78DD91
:10110000A00E6A6E75DD94880000000094860000D1
:101110000000000082A6FED78B9894980000000083
:101120008B969496AF0E6A6E63DD010E006E8FDDB6
:1011300001C02DF0010E006E8ADD01C02EF0010EFF
:10114000006E85DD01C02FF0010E006E80DD01C054
:1011500030F0036A53C0E9FF03C0EAFF010E006EDE
:1011600076DD01C0EFFF010E5324036AE96E03C070
:10117000EAFF010E006E6BDD01C0EFFF020E53248B
:10118000036AE96E03C0EAFF010E006E60DD01C074
:10119000EFFF030E5324036AE96E03C0EAFF010E5A
:1011A000006E55DD01C0EFFF036A54C0E9FF03C0C4
:1011B000EAFF010E006E4BDD01C0EFFF010E54246B
:1011C000036AE96E03C0EAFF010E006E40DD01C054
:1011D000EFFF020E5424036AE96E03C0EAFF010E1A
:1011E000006E35DD01C0EFFF030E5424036AE96E83
:1011F00003C0EAFF010E006E2ADD01C0EFFF036AA3
:1012000055C0E9FF03C0EAFF010E006E20DD01C0FA
:10121000EFFF010E5524036AE96E03C0EAFF010ED9
:10122000006E15DD01C0EFFF020E5524036AE96E62
:1012300003C0EAFF010E006E0ADD01C0EFFF030EDE
:101240005524036AE96E03C0EAFF006A00DD01C0AD
:10125000EFFF94980000948682A6FED7000000005D
:1012600000000000000094880000000018D0130E59
:101270002D6E1E0E2E6E140E2F6E1E0E306E1C6AFC
:101280001B6A480E1A6E830E196E206A1F6A1E6A48
:10129000810E1D6E246A236A226A7F0E216E3352EC
:1012A00009E12DC04DF02EC04CF05B6A4B0E5A6E1A
:1012B0002EDD08D02FC04DF030C04CF05B6A4B0ED5
:1012C0005A6E25DD000C702C01D003D0400E716EDB
:1012D00001D0716A010E6F5C712671508009726EC7
:1012E000736A746E40DC000C6E500C0A05E0060A4E
:1012F0000CE0020A10E014D0736A010E746E33DC45
:10130000020E756E7DEC05F011D0010E6F6E020EAF
:10131000706ED9DF0BD0736A100E746E24DC06D0A9
:10132000010E736E6EC074F01EDC00D0000C0B0E4C
:10133000596EF19E0F0E956E100E5A6E5D6A5D50DD
:10134000030845E3010E5B6E5E6A5E50020837E3F8
:101350005AC083FF831E000083500F0B5C6E5C50ED
:10136000F009FF0A5C6E5B505C5C25E1140E756E43
:101370007DEC05F05D50030DF350606A5F6E036A0B
:101380005E505F24016E605003220150F2CF61F085
:10139000F29E99EC00F061BEF28E596E5B505C5C7F
:1013A00009E1040083500F0B5C6E5C50F009FF0AEA
:1013B0005C6EF4D704D0D8905B365E2AC6D75950FD
:1013C0000B0801E004D0D8905A365D2AB8D7F18EC8
:1013D00059C001F0000C6450016A635C03E263C011
:1013E00000F00CD0006A080E656E6336003664505B
:1013F000005CD8B0006E0136652EF7D7000C0150A6
:1014000061C063F0640E646EE6DF00C061F00150FD
:10141000300E07E162A20CD062B60AD062B8200E8C
:1014200003D0629662986280012601C06EF05CDF94
:1014300061C063F00A0E646ECEDF00C061F001503F
:10144000300E06E162B608D062A006D062B8200E67
:10145000012601C06EF048DF300E612661C06EF0DB
:1014600043DF000C686A696A2EDCD8EF1FF0525027
:10147000E96E53C0EAFFEFCF59F059C062F013DCB8
:1014800001C054F0010E5224E96E000E5320EA6EA2
:10149000EFCF59F059C062F006DC01C055F0020EE2
:1014A0005224E96E000E5320EA6EEFCF59F059C076
:1014B00062F053EC06F001C056F0030E5224E96EC0
:1014C000000E5320EA6EEFCF59F059C062F053EC92
:1014D00006F0050E5224E96E000E5320EA6EEF3836
:1014E000006E00360036C00E001600500110576E18
:1014F000040E5224E96E000E5320EA6EEFCF59F02D
:1015000059C062F053EC06F0060E5224E96E000E4C
:101510005320EA6EEF38006E0036E00E00160050E1
:101520000110586E686A800E696E63EC06F094884C
:101530000000000094860000000000008B98949842
:10154000000000008B969496A00E6A6EF8EC05F0F1
:10155000010E6A6EF8EC05F06A6AF8EC05F054C00A
:101560006AF0F8EC05F055C06AF0F8EC05F056C0EA
:101570006AF0F8EC05F057C06AF0F8EC05F058C0D6
:101580006AF0F8EC05F094980000948682A6FED7E5
:10159000000000000000000000009488000000002F
:1015A000050E5224E96E000E5320EA6EEFCF59F07B
:1015B000100E686E59C069F063EC06F0686A696ADB
:1015C00063EC06F0DDEF1FF0929A899A0400020E98
:1015D000686EF70E766EA4EC05F0682EFAD7928A44
:1015E0000400020E686EF70E766EA4EC05F0682E0D
:1015F000FAD7928A000C696A695007081AE3929A2E
:10160000899A0400000000000000D890683202E2CD
:10161000899A01D0898A929A0400270E006E002EC2
:10162000FED70000928A0400000000000000692A32
:10163000E3D7000C686A685007081DE3929A899AFC
:101640000400000000000000928A0400040E006EF6
:10165000002EFED700000000928A80BA02D0D890F7
:1016600001D0D880693204004F0E006E002EFED7E4
:101670000000682AE0D769C001F0000C8E0E006EF1
:1016800069C001F068C002F0036A69AE05D0011EAE
:10169000021E022A01E1012A015209E102C001F001
:1016A000026A080E005E015202E1006A0AD0D89078
:1016B00001BE04D0023601360006F9D769BE01D05A
:1016C000019E000036EF0CF06C50D8B4A5D0786EB7
:1016D0007050D8B4A1D0785E05E37F0E7826D8B0DC
:1016E0009BD006D0810E785ED8A096D0D8B494D086
:1016F00078C000F0016A026A036A776A6DC076F00A
:10170000768E6EC075F06FC074F0190E786E7350DF
:10171000745E0DE2010E755E0AE2765E08E2775EA7
:1017200006E2772A762A752A7350742628D07250DA
:10173000755E12E2010E765E0FE2775E0DE2772AA9
:10174000762A725075267350742619E3752A17E1AC
:10175000762A15E1772A13D071508009765E0EE261
:10176000010E775E0BE2772A71508009762672505F
:101770007526E9E3762AE7E1772AE5D70380782E14
:1017800001D00BD0D8907436753676367736D8902F
:101790000336023601367936BAD779A006D0D8900A
:1017A000013202320332793202D0000635E079BECE
:1017B0001ED0D89074367536763677367350745E90
:1017C00007E2010E755E04E2765E02E2775E1AE3DE
:1017D0007250755E05E2010E765E02E2775E12E3FC
:1017E00071508009765E03E2010E775E0BE3032AF7
:1017F00009E1022A07E1012A05E1002A0DE0013290
:10180000023203326DC078F07150781A78AE02D08F
:10181000018E06D0019E04D0006A016A026A036A42
:101820000000000C5F6AD0DECC0E686EE4DE440E71
:10183000686EE1DE5F5204E1FDDE01C05FF0FAD7C1
:10184000C3DECC0E686ED7DEBE0E686ED4DEF2DE6E
:1018500001C060F0EFDE01C061F061C063F060C004
:1018600062F063C069F062C068F008D700C068F039
:1018700001C069F002C06AF003C06BF003C06FF0F2
:1018800002C06EF001C06DF000C06CF0736A726A45
:10189000716A800E706E18DF03C067F002C066F0D8
:1018A00001C065F000C064F064C000F065C001F0E4
:1018B00066C002F067C003F0000CB4DF03C05CF048
:1018C00002C05BF001C05AF000C059F0D882186A1B
:1018D000F2BE188EF29E1CC07EF01BC07DF01AC0B6
:1018E0007CF019C07BF0826B816B806B800E7F6E09
:1018F000DCEC03F018BEF28E186AF2BE188EF29E6F
:101900005CC07EF05BC07DF05AC07CF059C07BF0BB
:1019100003C082F002C081F001C080F000C07FF0FF
:10192000A1EC03F018BEF28E01E203E194908B80EB
:1019300002D094908B90000C6BC06CF0D8906C32FD
:10194000780E6C166C30006E00323F0E00160050A0
:101950006C246D6E6B500F0B6D24016E000C94881F
:101960000000000094860000000000008B9894980E
:10197000000000008B969496A00E6A6EF8EC05F0BD
:1019800068C06AF0F8EC05F09488000000009486C6
:1019900000000000000082A6FED78B9894980000FB
:1019A00000008B969496A10E6A6EF8EC05F0006A22
:1019B00027EC06F001C069F094980000948682A696
:1019C000FED7000000000000000000009488000026
:1019D000000069C001F0B4EF0DF094880000000031
:1019E00094860000000000008B989498000000008E
:1019F0008B969496A00E6A6EF8EC05F0020E6A6E55
:101A0000F8EC05F0948800000000948600000000C7
:101A1000000082A6FED78B989498000000008B9659
:101A20009496A10E6A6EF8EC05F0010E006E27EC9C
:101A300006F001C063F0010E006E27EC06F001C055
:101A400064F0010E006E27EC06F001C065F0010E97
:101A5000006E27EC06F001C066F0006A27EC06F085
:101A600001C067F094980000948682A6FED700001B
:101A700000000000000000009488000000005FC02B
:101A800001F060C003F05FC068F060C069F063C03F
:101A90006BF052DF69C0EAFF68C0E9FF01C0EFFFE9
:101AA000010E5F24016E000E6020036E01C068F01D
:101AB000696E64C06BF040DF69C0EAFF68C0E9FF8F
:101AC00001C0EFFF020E5F24016E000E6020036E66
:101AD00001C068F0696E65503F0B6A6E6B6E2CDF5B
:101AE00069C0EAFF68C0E9FF01C0EFFF030E5F2491
:101AF000016E000E6020036E01C068F0696E6650D2
:101B00003F0B6A6E6B6E18DF69C0EAFF68C0E9FFC1
:101B100001C0EFFF040E5F24016E000E6020036E13
:101B200001C068F0696E67501F0B6A6E6B6E04DF50
:101B300069C0EAFF68C0E9FF01C0EFFF060E5F243D
:101B4000E96E000E6020EA6E6738006E0032070E04
:101B5000001600C0EFFF6638616E61326132030E1D
:101B60006116100E686EFBD601C062F06250030B66
:101B7000615C02E0622AFAD7050E5F24E96E000E6E
:101B80006020EA6E62C0EFFF100E686E62C069F0FE
:101B900063EC06F08BEF0FF08E0E006E62C001F06A
:101BA00061C002F0036A015209E102C001F0026A59
:101BB000080E005E015202E1006A08D0D89001BE12
:101BC00004D0023601360006F9D7019E0000000C51
:101BD0006E50D8B471D0006E7250D8B46DD000265B
:101BE00004E3810E002668E204D07F0E005E64E309
:101BF00063E06FC076F07350761A6F8E738E7150FB
:101C00007502F4CF78F070507402F4CF03F0F3CF84
:101C100077F07502F3507826F4507722000E0322F5
:101C200071507402F3507826F4507722000E026A45
:101C3000032202226F507502F3507726F4500322DC
:101C4000000E02226F507402F3500326F450022259
:101C5000000E016A012271507302F3507726F4508E
:101C60000322000E0222012270507302F350032659
:101C7000F4500222000E01226F507302F35002262C
:101C8000F4500122002A01BE05D077360336023611
:101C900001360006000E77AE0AD0032A0222012286
:101CA000015005E1025003E1035001E1002A76BE34
:101CB000018E76AE019E04D0006A016A026A036A50
:101CC0000000000C6E50B6086E6E036A6FC072F0B2
:101CD0006F8ED8906F32703271320332023201321D
:101CE00000326E2EF6D772AE0BD0001E011E021E01
:101CF000031E002AD8B4012AD8B4022AD8B4032A71
:101D0000000C006A016A026A036A766A776A786A76
:101D1000796A75507410731072102CE0200E7A6E70
:101D2000D8906E366F3670367136763677367836AE
:101D300079367550795C08E17450785C05E1735030
:101D4000775C02E17250765C0FE37250765E7350FE
:101D5000D8A0733C775E7450D8A0743C785E755000
:101D6000D8A0753C795ED88000360136023603363D
:101D70007A2ED6D70000EA6A760EE96E000CE9509A
:101D8000666E6550686E19E064C071F063C070F0F3
:101D900062C06FF061C06EF0756A746A200E736E77
:101DA000820E726E15DF03C064F002C063F001C0E2
:101DB00062F000C061F0682EE7D764C071F063C0C4
:101DC00070F062C06FF061C06EF07CDF03C064F041
:101DD00002C063F001C062F000C061F064AE0DD0DB
:101DE0006606668A611E621E631E641E612AD8B47E
:101DF000622AD8B4632AD8B4642A3B0E6D6E9A0E58
:101E00006C6ECA0E6B6E6A6A0A0E686E6550D8B444
:101E1000662A64C071F063C070F062C06FF061C088
:101E20006EF06DC075F06CC074F06BC073F06AC07A
:101E300072F067DF0150EFCF61F0ECCF62F0ECCFD2
:101E400063F0ECCF64F000520FE16528685C0CE0B1
:101E500066500CE00F0B685C01E03BE266BE39D0D7
:101E600066BC04D0200E30D0200E661666AA0DD0B7
:101E7000669A6550D8A466060050666E2D0E6E6E8A
:101E800074EC09F06650006E666A6550685C0BE1A0
:101E90000050666E2E0E6E6E74EC09F06650006E89
:101EA000200E6616000E300E66AA0ED0669A655099
:101EB000D8A466060050666E2D0E6E6E74EC09F0A6
:101EC0006650006E666A300E002600C06EF074EC3C
:101ED00009F06DC071F06CC070F06BC06FF06AC03B
:101EE0006EF0756A746A736A0A0E726E0ADF03C056
:101EF0006DF002C06CF001C06BF000C06AF0682E9B
:101F000088D7000C736A020E746EB3EC05F0606A39
:101F1000440E5F6E62D586DC03C056F002C055F0F9
:101F200001C054F000C053F04A500A0DF350036A48
:101F30005F6EEA6A3A0EE96EF2CF60F0F29E5F5091
:101F40005AEC00F00A000900F550EE6E0009FBE1C2
:101F500060BEF28E000E016EC250C30B0110C26E45
:101F60000400060E006E002EFED7C282C2B2FED75B
:101F7000C450626A616E10DE03C05AF002C059F0AC
:101F800001C058F000C057F05AC071F059C070F04D
:101F900058C06FF057C06EF0756A746A200E736E89
:101FA000810E726E15DE00C05FF001C060F002C0ED
:101FB00061F003C062F003C06FF002C06EF001C0B8
:101FC0006DF000C06CF0736A726A7F0E716E860EDF
:101FD000706E64EC0BF003C05AF002C059F001C0FF
:101FE00058F000C057F0040E016EC250C30B011030
:101FF000C26E0400060E006E002EFED7C282C2B270
:10200000FED7C450626A616EC7DD03C05EF002C0D5
:102010005DF001C05CF000C05BF05EC071F05DC0BF
:1020200070F05CC06FF05BC06EF0756A746A200E71
:10203000736E810E726ECCDD00C05FF001C060F087
:1020400002C061F003C062F003C06FF002C06EF026
:1020500001C06DF000C06CF0736A726A7F0E716E21
:10206000860E706E64EC0BF003C05EF002C05DF093
:1020700001C05CF000C05BF0736A010E746EB3ECDB
:1020800005F0010E6F6E706E63EC09F05F6A5F50D1
:1020900043EC02F05F2A006E6E6E74EC09F0070EDE
:1020A0005F5CF5E1020EE96E5AC064F059C063F05E
:1020B00058C062F057C061F0656E61DE0C0E606E54
:1020C000605043EC02F0602A006E6E6E74EC09F012
:1020D000180E605CF5E1020EE96E5EC064F05DC052
:1020E00063F05CC062F05BC061F0656E48DE200E9C
:1020F0006E6E74EC09F0040E5F6EFA0E756E7DEC78
:1021000005F05F2EFAD7736A010E746EB3EC05F01A
:10211000010E6F6E706E63EC09F05F6A5F5060ECE9
:1021200002F05F2A006E6E6E74EC09F0060E5F5CC2
:10213000F5E1020EE96E56C064F055C063F054C07C
:1021400062F053C061F0010E656E19DE200E6E6EF6
:1021500074EC09F0DF0E6E6E74EC09F00E0E606E1A
:10216000605060EC02F0602A006E6E6E74EC09F054
:10217000170E605CF5E146C061F01B0E626EFFEC6D
:1021800009F03A0E6E6E74EC09F045C061F0110E64
:10219000626EFFEC09F03A0E6E6E74EC09F044C00A
:1021A00061F0110E626EFFEC09F0040E5F6EFA0E24
:1021B000756E7DEC05F05F2EFAD7000C015054C00F
:1021C00063F0640E646EEBEC09F000C054F0015053
:1021D000300E07E155A20DD055B60BD055B8200EE4
:1021E00003D0559655985580012601509EA8FED7DC
:1021F000AD6E54C063F00A0E646EEBEC09F000C0E3
:1022000054F00150300E06E155B609D055A007D064
:1022100055B8200E012601509EA8FED7AD6E300E97
:10222000542654509EA8FED7AD6E000CE950596E4E
:1022300058505B6E19E057C071F056C070F055C031
:102240006FF054C06EF0756A746A200E736E820E61
:10225000726EBEDC03C057F002C056F001C055F0EC
:1022600000C054F05B2EE7D757C071F056C070F035
:1022700055C06FF054C06EF025DD03C057F002C0AA
:1022800056F001C055F000C054F057AE0DD05906BD
:10229000598A541E551E561E571E542AD8B4552A04
:1022A000D8B4562AD8B4572A3B0E606E9A0E5F6E89
:1022B000CA0E5E6E5D6A0A0E5B6E5850D8B4592A1B
:1022C00057C071F056C070F055C06FF054C06EF03A
:1022D00060C075F05FC074F05EC073F05DC072F0F6
:1022E00010DD0150EFCF54F0ECCF55F0ECCF56F0AD
:1022F000ECCF57F000520FE158285B5C0CE05950CE
:102300000CE00F0B5B5C01E03BE259BE39D059BCDD
:1023100004D0200E30D0200E591659AA0DD0599A4B
:102320005850D8A459060050596E2D0E9EA8FED7BD
:10233000AD6E5950006E596A58505B5C0BE100500D
:10234000596E2E0E9EA8FED7AD6E5950006E200E0F
:102350005916000E300E59AA0ED0599A5850D8A4CA
:1023600059060050596E2D0E9EA8FED7AD6E5950DD
:10237000006E596A300E002600509EA8FED7AD6E42
:1023800060C071F05FC070F05EC06FF05DC06EF055
:10239000756A746A736A0A0E726EB3DC03C060F009
:1023A00002C05FF001C05EF000C05DF05B2E88D718
:1023B000000CFDEC06F0536A53507EEC02F0532AF9
:1023C000006E00509EA8FED7AD6E1E0E535CF4E169
:1023D00046C054F01B0E556EF1DE3A0E9EA8FED795
:1023E000AD6E45C054F0110E556EE8DE3A0E9EA853
:1023F000FED7AD6E44C054F0110E556EDFDE280ED0
:10240000546E54507EEC02F0542A006E00509EA888
:10241000FED7AD6E2C0E545CF4E1536A5350A2EC1F
:1024200002F0532A006E00509EA8FED7AD6E1E0E1D
:10243000535CF4E12DC054F01B0E556EBFDE3A0E16
:102440009EA8FED7AD6E2EC054F01B0E556EB6DEA4
:102450000A0E9EA8FED7AD6E0D0E9EA8FED7AD6EDD
:10246000536A5350C2EC02F0532A006E00509EA8EB
:10247000FED7AD6E1B0E535CF4E12FC054F01B0E63
:10248000556E9CDE3A0E9EA8FED7AD6E30C054F05D
:102490001B0E556E93DE0A0E9EA8FED7AD6E0D0E76
:1024A0009EA8FED7AD6E536A5350E1EC02F0532A5A
:1024B000006E00509EA8FED7AD6E1C0E535CF4E17A
:1024C000010EE96E1CC057F01BC056F01AC055F043
:1024D00019C054F0586EAADE0A0E9EA8FED7AD6E43
:1024E0000D0E9EA8FED7AD6E536A535000EC03F05C
:1024F000532A006E00509EA8FED7AD6E1F0E535C8F
:10250000F4E1890EE96E20C057F01FC056F01EC0DE
:1025100055F01DC054F0010E586E88DE0A0E9EA8BC
:10252000FED7AD6E0D0E9EA8FED7AD6E536A53500A
:1025300021EC03F0532A006E00509EA8FED7AD6E2A
:10254000240E535CF4E1890EE96E24C057F023C0D9
:1025500056F022C055F021C054F0010E586E66DED0
:102560000A0E9EA8FED7AD6E0D0E9EA8FED7AD6ECC
:10257000536A535044EC03F0000905E0532A9EA827
:10258000FED7AD6EF6D7000C000E016EC250C30B25
:102590000110C26E0400060E006E002EFED7C2822D
:1025A000C2B2FED7C450626A616ECCEC0DF003C0BB
:1025B0005CF002C05BF001C05AF000C059F05CC092
:1025C00071F05BC070F05AC06FF059C06EF0756A60
:1025D000746A200E736E810E726EE8EC0DF000C00E
:1025E00061F001C062F002C063F003C064F003C098
:1025F0006FF002C06EF001C06DF000C06CF0736A45
:10260000726A7F0E716E860E706E64EC0BF003C002
:102610005CF002C05BF001C05AF000C059F0040E3B
:10262000016EC250C30B0110C26E0400060E006E94
:10263000002EFED7C282C2B2FED7C450626A616E5B
:10264000CCEC0DF003C060F002C05FF001C05EF0A2
:1026500000C05DF060C071F05FC070F05EC06FF0F0
:102660005DC06EF0756A746A200E736E810E726EB4
:10267000E8EC0DF000C061F001C062F002C063F050
:1026800003C064F003C06FF002C06EF001C06DF0D3
:1026900000C06CF0736A726A7F0E716E860E706E87
:1026A00064EC0BF003C060F002C05FF001C05EF0AC
:1026B00000C05DF0D882186AF2BE188EF29E20C06B
:1026C0007EF01FC07DF01EC07CF01DC07BF05CC0A2
:1026D00082F05BC081F05AC080F059C07FF0DCEC22
:1026E00003F018BEF28E03C028F002C027F001C02C
:1026F00026F000C025F0D882186AF2BE188EF29E2D
:1027000060C07EF05FC07DF05EC07CF05DC07BF09D
:1027100024C082F023C081F022C080F021C07FF06D
:10272000DCEC03F018BEF28E03C02CF002C02BF0DC
:1027300001C02AF000C029F0186AF2BE188EF29E7D
:1027400028C07EF027C07DF026C07CF025C07BF03D
:10275000826B816B806B7F6AA1EC03F018BEF28EF6
:1027600004E3286A276A266A256A186AF2BE188E68
:10277000F29E2CC07EF02BC07DF02AC07CF029C0D8
:102780007BF0826B816B806B7F6AA1EC03F018BEDB
:10279000F28E04E32C6A2B6A2A6A296AE6EF13F0A8
:1027A000335213E1686A040E696E63EC06F02FC0C1
:1027B0004DF030C04CF05B6A4B0E5A6E87EC06F061
:1027C000949A8B8A010E336E12D0DED6686A040E9C
:1027D000696E63EC06F02DC04DF02EC04CF05B6AC4
:1027E0004B0E5A6E87EC06F0949A8B9A336A326AD3
:1027F000000C190E596E1D0E5A6E210E5B6E9E0E48
:10280000A96EAB0EA86EA69CA69EA684F2CF00F081
:10281000F29E0F01550EA76EAA0EA76EA682A6B253
:10282000FED7A6940050F2129F0EA96ECD0EA86E90
:10283000A69CA69EA684F2CF00F0F29E550EA76E2F
:10284000AA0EA76EA682A6B2FED7A6940050F212D8
:10285000A00EA96E2DC0A8FFA69CA69EA684F2CFAE
:1028600000F0F29E550EA76EAA0EA76EA682A6B223
:10287000FED7A6940050F212A10EA96E2EC0A8FF9A
:10288000A69CA69EA684F2CF00F0F29E550EA76EDF
:10289000AA0EA76EA682A6B2FED7A6940050F21288
:1028A000A20EA96E2FC0A8FFA69CA69EA684F2CF5A
:1028B00000F0F29E550EA76EAA0EA76EA682A6B2D3
:1028C000FED7A6940050F212A30EA96E30C0A8FF46
:1028D000A69CA69EA684F2CF00F0F29E550EA76E8F
:1028E000AA0EA76EA682A6B2FED7A6940050F21238
:1028F000036A59C0E9FF03C0EAFFEFCF5CF0A40E02
:10290000A96E5CC0A8FFA69CA69EA684F2CF00F08C
:10291000F29E550EA76EAA0EA76EA682A6B2FED78D
:10292000A6940050F212010E5924036AE96E03C006
:10293000EAFFEFCF5CF0A50EA96E5CC0A8FFA69CD5
:10294000A69EA684F2CF00F0F29E550EA76EAA0EA8
:10295000A76EA682A6B2FED7A6940050F212020E6F
:102960005924036AE96E03C0EAFFEFCF5CF0A60EBC
:10297000A96E5CC0A8FFA69CA69EA684F2CF00F01C
:10298000F29E550EA76EAA0EA76EA682A6B2FED71D
:10299000A6940050F212030E5924036AE96E03C094
:1029A000EAFFEFCF5CF0A70EA96E5CC0A8FFA69C63
:1029B000A69EA684F2CF00F0F29E550EA76EAA0E38
:1029C000A76EA682A6B2FED7A6940050F212036AA2
:1029D0005AC0E9FF03C0EAFFEFCF5CF0A80EA96E72
:1029E0005CC0A8FFA69CA69EA684F2CF00F0F29E33
:1029F000550EA76EAA0EA76EA682A6B2FED7A69403
:102A00000050F212010E5A24036AE96E03C0EAFF75
:102A1000EFCF5CF0A90EA96E5CC0A8FFA69CA69E95
:102A2000A684F2CF00F0F29E550EA76EAA0EA76EF6
:102A3000A682A6B2FED7A6940050F212020E5A2425
:102A4000036AE96E03C0EAFFEFCF5CF0AA0EA96E3D
:102A50005CC0A8FFA69CA69EA684F2CF00F0F29EC2
:102A6000550EA76EAA0EA76EA682A6B2FED7A69492
:102A70000050F212030E5A24036AE96E03C0EAFF03
:102A8000EFCF5CF0AB0EA96E5CC0A8FFA69CA69E23
:102A9000A684F2CF00F0F29E550EA76EAA0EA76E86
:102AA000A682A6B2FED7A6940050F212036A5BC0BB
:102AB000E9FF03C0EAFFEFCF5CF0AC0EA96E5CC08B
:102AC000A8FFA69CA69EA684F2CF00F0F29E550E0B
:102AD000A76EAA0EA76EA682A6B2FED7A694005035
:102AE000F212010E5B24036AE96E03C0EAFFEFCF26
:102AF0005CF0AD0EA96E5CC0A8FFA69CA69EA68445
:102B0000F2CF00F0F29E550EA76EAA0EA76EA68217
:102B1000A6B2FED7A6940050F212020E5B24036AFE
:102B2000E96E03C0EAFFEFCF5CF0AE0EA96E5CC0A9
:102B3000A8FFA69CA69EA684F2CF00F0F29E550E9A
:102B4000A76EAA0EA76EA682A6B2FED7A6940050C4
:102B5000F212030E5B24036AE96E03C0EAFFEFCFB3
:102B60005CF0AF0EA96E5CC0A8FFA69CA69EA684D2
:102B7000F2CF00F0F29E550EA76EAA0EA76EA682A7
:102B8000A6B2FED7A6940050F2129488000000006E
:102B900094860000000000008B98949800000000CC
:102BA0008B969496AE0E6A6E0001F8EC05F06A6A98
:102BB000F8EC05F0A00E6A6EF8EC05F02DC06AF096
:102BC000F8EC05F02EC06AF0F8EC05F02FC06AF0C2
:102BD000F8EC05F030C06AF0F8EC05F0036A59C073
:102BE000E9FF03C0EAFFEFCF5CF05CC06AF0F8ECED
:102BF00005F0010E5924036AE96E03C0EAFFEFCF26
:102C00005CF05CC06AF0F8EC05F0020E5924036A2F
:102C1000E96E03C0EAFFEFCF5CF05CC06AF0F8EC4D
:102C200005F0030E5924036AE96E03C0EAFFEFCFF3
:102C30005CF05CC06AF0F8EC05F0036A5AC0E9FF8A
:102C400003C0EAFFEFCF5CF05CC06AF0F8EC05F07F
:102C5000010E5A24036AE96E03C0EAFFEFCF5CF06D
:102C60005CC06AF0F8EC05F0020E5A24036AE96EC3
:102C700003C0EAFFEFCF5CF05CC06AF0F8EC05F04F
:102C8000030E5A24036AE96E03C0EAFFEFCF5CF03B
:102C90005CC06AF0F8EC05F0036A5BC0E9FF03C0B2
:102CA000EAFFEFCF5CF05CC06AF0F8EC05F0010ED3
:102CB0005B24036AE96E03C0EAFFEFCF5CF05CC0FF
:102CC0006AF0F8EC05F0020E5B24036AE96E03C0BB
:102CD000EAFFEFCF5CF05CC06AF0F8EC05F0030EA1
:102CE0005B24036AE96E03C0EAFFEFCF5CF05CC0CF
:102CF0006AF0F8EC05F094980000948682A6FED75E
:102D000000000000000000000000948800000000A7
:102D1000320E756E7DEC05F09488000000009486FC
:102D20000000000000008B989498000000008B9633
:102D30009496AE0E6A6EF8EC05F06A6AF8EC05F04F
:102D40009E0E6A6EF8EC05F0AB0E6A6EF8EC05F0BC
:102D5000CD0E6A6EF8EC05F094980000948682A679
:102D6000FED7000000000000000000009488000072
:102D70000000000C536A586A736A010E746EB3EC5B
:102D800005F0010E6F6E706E63EC09F0596A5950D0
:102D90001AEC01F0592A006E6E6E74EC09F00A0EFE
:102DA000595CF5E12DC061F01B0E626EFFEC09F07D
:102DB0003A0E6E6E74EC09F02EC061F01B0E626E5E
:102DC000FFEC09F0010E6F6E020E706E63EC09F0FD
:102DD000596A59502FEC01F0000905E0592A6E6E2E
:102DE00074EC09F0F6D7928880B876D0928880A8E3
:102DF000FDD7535239E1010E536E736A746EB3EC12
:102E000005F0010E6F6E706E63EC09F0596A59504F
:102E100042EC01F0592A006E6E6E74EC09F00A0E55
:102E2000595CF5E12FC061F01B0E626EFFEC09F0FA
:102E30003A0E6E6E74EC09F030C061F01B0E626EDB
:102E4000FFEC09F0010E6F6E020E706E63EC09F07C
:102E5000596A59502FEC01F0000905E0592A6E6EAD
:102E600074EC09F0F6D738D0536A736A010E746EA9
:102E7000B3EC05F0010E6F6E706E63EC09F0596AE9
:102E800059501AEC01F0592A006E6E6E74EC09F07C
:102E90000A0E595CF5E12DC061F01B0E626EFFEC6D
:102EA00009F03A0E6E6E74EC09F02EC061F01B0E44
:102EB000626EFFEC09F0010E6F6E020E706E63EC35
:102EC00009F0596A59502FEC01F0000905E0592A20
:102ED0006E6E74EC09F0F6D7968284B22AD0968290
:102EE00084A2FDD7736A010E746EB3EC05F0010E77
:102EF0006F6E706E63EC09F0596A5950ACEC00F0DB
:102F0000000905E0592A6E6E74EC09F0F6D7010E3F
:102F10006F6E020E706E63EC09F0596A5950C2EC84
:102F200000F0000905E0592A6E6E74EC09F0F6D73E
:102F300094D1968084B0F0D058500408D8B4ECD026
:102F4000968084A0FDD7736A010E746EB3EC05F011
:102F5000010E6F6E706E63EC09F053520CE1596A0A
:102F6000595057EC01F0000905E0592A6E6E74ECD7
:102F700009F0F6D70BD0596A59506DEC01F00009F1
:102F800005E0592A6E6E74EC09F0F6D7010E6F6EEB
:102F9000020E706E63EC09F0596A595082EC01F030
:102FA000000905E0592A6E6E74EC09F0F6D70A0E96
:102FB0006F6E020E706E63EC09F058500308D8A0D3
:102FC000ABD0968284B25BD0968284A2FDD7736A1E
:102FD000010E746EB3EC05F0010E6F6E706E63EC53
:102FE00009F053521DE1596A59501AEC01F0592A5F
:102FF000006E6E6E74EC09F00A0E595CF5E12DC09E
:1030000061F01B0E626EFFEC09F03A0E6E6E74EC0E
:1030100009F02EC061F01B0E626EFFEC09F01CD0AF
:10302000596A595042EC01F0592A006E6E6E74ECE8
:1030300009F00A0E595CF5E12FC061F01B0E626EBB
:10304000FFEC09F03A0E6E6E74EC09F030C061F0DE
:103050001B0E626EFFEC09F0010E6F6E020E706EB9
:1030600063EC09F0596A59502FEC01F0000905E0B2
:10307000592A6E6E74EC09F0F6D7586A4DD0585044
:10308000FC0F43E2040F2FEF19F097EC09F001C099
:1030900054F05450020807E354C061F01B0E626EF6
:1030A000FFEC09F0582A31D097EC09F001C055F037
:1030B000555009080BE355C061F01B0E626EFFEC22
:1030C00009F03A0E6E6E74EC09F0582A1ED097EC97
:1030D00009F001C056F05650050807E356C061F0EC
:1030E0001B0E626EFFEC09F0582A0FD097EC09F026
:1030F00001C057F05750090807E357C061F01B0E95
:10310000626EFFEC09F0582A00D05DEC0CF0322C16
:1031100002D0D0EC13F051D7968084B097D058509D
:103120000408D8A493D0968084A0FDD754500A0DEB
:10313000F3505524170833E3535216E154500A0D47
:10314000F35055242D6E56500A0DF35057242E6E11
:10315000335209E12DC04DF02EC04CF05B6A4B0E8E
:103160005A6E87EC06F015D054500A0DF3505524D2
:103170002F6E56500A0DF3505724306E332C09D061
:103180002FC04DF030C04CF05B6A4B0E5A6E87EC8E
:1031900006F00A0E756E7DEC05F0F9EC13F0586A36
:1031A000736A010E746EB3EC05F0010E6F6E706EF3
:1031B00063EC09F053521DE1596A59501AEC01F0C1
:1031C000592A006E6E6E74EC09F00A0E595CF5E136
:1031D0002DC061F01B0E626EFFEC09F03A0E6E6EB0
:1031E00074EC09F02EC061F01B0E626EFFEC09F06A
:1031F0001CD0596A595042EC01F0592A006E6E6E8B
:1032000074EC09F00A0E595CF5E12FC061F01B0E59
:10321000626EFFEC09F03A0E6E6E74EC09F030C08D
:1032200061F01B0E626EFFEC09F0010E6F6E020E74
:10323000706E63EC09F0596A59502FEC01F00009E7
:1032400005E0592A6E6E74EC09F0F6D75DEC0CF0CF
:10325000322C02D0D0EC13F0C6D5C2EF1EF0F2CF64
:103260000EF0F29EE824830FF66E320EF76ED8B0A1
:10327000F72A0A00F550FA6E0800F5500EBEF28EDD
:10328000F96E8A30A830CE30EC30566A736A010E7F
:10329000746EB3EC05F0010E6F6E706E63EC09F0A6
:1032A000576A575097EC01F0572A006E6E6E74EC17
:1032B00009F00C0E575CF5E1010EE96E1CC064F0DC
:1032C0001BC063F01AC062F019C061F0656EBFECFC
:1032D0000EF0010E6F6E020E706E63EC09F0576A0D
:1032E00057502FEC01F0000905E0572A6E6E74EC80
:1032F00009F0F6D7968284B22AD0968284A2FDD7AE
:10330000736A010E746EB3EC05F0010E6F6E706E91
:1033100063EC09F0576A5750ACEC00F0000905E087
:10332000572A6E6E74EC09F0F6D7010E6F6E020E1E
:10333000706E63EC09F0576A5750D8EC00F0000942
:1033400005E0572A6E6E74EC09F0F6D74BD19680E3
:1033500084B0B2D056500308D8B4AED0968084A0C2
:10336000FDD7736A010E746EB3EC05F0010E6F6E3B
:10337000706E63EC09F0576A5750ADEC01F000092C
:1033800005E0572A6E6E74EC09F0F6D7010E6F6EE9
:10339000020E706E63EC09F0576A5750C3EC01F0EF
:1033A000000905E0572A6E6E74EC09F0F6D70A0E94
:1033B0006F6E020E706E63EC09F056500208D8A0D2
:1033C0007BD0968284B239D0968284A2FDD7736A6C
:1033D000010E746EB3EC05F0010E6F6E706E63EC4F
:1033E00009F0576A575097EC01F0572A006E6E6E3D
:1033F00074EC09F00C0E575CF5E1010EE96E1CC08F
:1034000064F01BC063F01AC062F019C061F0656E11
:10341000BFEC0EF0010E6F6E020E706E63EC09F0E1
:10342000576A57502FEC01F0000905E0572A6E6EDD
:1034300074EC09F0F6D7566A3FD0565005E0010A01
:1034400012E0030A23E031D097EC09F001C053F0F9
:103450005350090807E353C061F01B0E626EFFEC86
:1034600009F0562A22D097EC09F001C054F05450CC
:1034700009080BE354C061F01B0E626EFFEC09F00B
:103480002E0E6E6E74EC09F0562A0FD097EC09F0F0
:1034900001C055F05550090807E355C061F01B0EF7
:1034A000626EFFEC09F0562A00D05DEC0CF0322C75
:1034B00002D0D0EC13F081D7968084B08CD05650D7
:1034C0000308D8A488D0968084A0FDD753500A0D55
:1034D000F3505424586E626A55C061F0CCEC0DF084
:1034E000CD0E716ECC0E706E4C0E6F6E7B0E6E6ECE
:1034F00003C075F002C074F001C073F000C072F038
:10350000E8EC0DF000C059F001C05AF002C05BF0C9
:1035100003C05CF0626A58C061F0CCEC0DF0D89248
:10352000186AF2BE188EF29E03C07EF002C07DF0D3
:1035300001C07CF000C07BF05CC082F05BC081F019
:103540005AC080F059C07FF0DCEC03F018BEF28E58
:1035500003C01CF002C01BF001C01AF000C019F03B
:103560000A0E756E7DEC05F0F9EC13F0566A736A7D
:10357000010E746EB3EC05F0010E6F6E706E63ECAD
:1035800009F0576A575097EC01F0572A006E6E6E9B
:1035900074EC09F00C0E575CF5E1010EE96E1CC0ED
:1035A00064F01BC063F01AC062F019C061F0656E70
:1035B000BFEC0EF0010E6F6E020E706E63EC09F040
:1035C000576A57502FEC01F0000905E0572A6E6E3C
:1035D00074EC09F0F6D75DEC0CF0322C02D0D0EC94
:1035E00013F088D6C2EF1EF0556A736A010E746E2E
:1035F000B3EC05F0010E6F6E706E63EC09F0566A65
:103600005650D7EC01F0562A006E6E6E74EC09F03D
:103610000D0E565CF5E1890EE96E20C064F01FC006
:1036200063F01EC062F01DC061F0010E656EBFEC5C
:103630000EF0010E6F6E020E706E63EC09F0566AAA
:1036400056502FEC01F0000905E0562A6E6E74EC1E
:1036500009F0F6D7968284B22AD0968284A2FDD74A
:10366000736A010E746EB3EC05F0010E6F6E706E2E
:1036700063EC09F0566A5650ACEC00F0000905E026
:10368000562A6E6E74EC09F0F6D7010E6F6E020EBC
:10369000706E63EC09F0566A5650EEEC00F00009CB
:1036A00005E0562A6E6E74EC09F0F6D73FD196808D
:1036B00084B0A2D055500208D8B49ED0968084A081
:1036C000FDD7736A010E746EB3EC05F0010E6F6ED8
:1036D000706E63EC09F0566A5650EEEC01F000098A
:1036E00005E0562A6E6E74EC09F0F6D7010E6F6E87
:1036F000020E706E63EC09F0566A565003EC02F04D
:10370000000905E0562A6E6E74EC09F0F6D70A0E31
:103710006F6E020E706E63EC09F055500108D8A070
:103720006BD0968284B23AD0968284A2FDD7736A17
:10373000010E746EB3EC05F0010E6F6E706E63ECEB
:1037400009F0566A5650D7EC01F0562A006E6E6E9C
:1037500074EC09F00D0E565CF5E1890EE96E20C09F
:1037600064F01FC063F01EC062F01DC061F0010E66
:10377000656EBFEC0EF0010E6F6E020E706E63ECA4
:1037800009F0566A56502FEC01F0000905E0562A60
:103790006E6E74EC09F0F6D7556A2ED0555003E0E2
:1037A000010A14E022D097EC09F001C053F0535005
:1037B00009080BE353C061F01B0E626EFFEC09F0C9
:1037C0002E0E6E6E74EC09F0552A0FD097EC09F0AE
:1037D00001C054F05450090807E354C061F01B0EB7
:1037E000626EFFEC09F0552A00D05DEC0CF0322C33
:1037F00002D0D0EC13F091D7968084B090D0555081
:103800000208D8A48CD0968084A0FDD75350040819
:1038100005E2535005084DE154524BE1626A54C031
:1038200061F0CCEC0DF0CD0E716ECC0E706E4C0EC6
:103830006F6E7B0E6E6E03C075F002C074F001C037
:1038400073F000C072F0E8EC0DF000C056F001C05B
:1038500057F002C058F003C059F0626A53C061F0DB
:10386000CCEC0DF0D892186AF2BE188EF29E03C00E
:103870007EF002C07DF001C07CF000C07BF059C03A
:1038800082F058C081F057C080F056C07FF0DCEC69
:1038900003F018BEF28E03C020F002C01FF001C07A
:1038A0001EF000C01DF00A0E756E7DEC05F0F9ECFF
:1038B00013F0556A736A010E746EB3EC05F0010ED5
:1038C0006F6E706E63EC09F0566A5650D7EC01F0DB
:1038D000562A006E6E6E74EC09F00D0E565CF5E122
:1038E000890EE96E20C064F01FC063F01EC062F054
:1038F0001DC061F0010E656EBFEC0EF0010E6F6E23
:10390000020E706E63EC09F0566A56502FEC01F00F
:10391000000905E0562A6E6E74EC09F0F6D75DECEE
:103920000CF0322C02D0D0EC13F094D6C2EF1EF083
:10393000556A736A010E746EB3EC05F0010E6F6E7A
:10394000706E63EC09F0566A565017EC02F0562A76
:10395000006E6E6E74EC09F00D0E565CF5E1890E8A
:10396000E96E24C064F023C063F022C062F021C07D
:1039700061F0010E656EBFEC0EF0010E6F6E020E6F
:10398000706E63EC09F0566A56502FEC01F0000996
:1039900005E0562A6E6E74EC09F0F6D7968284B272
:1039A0002AD0968284A2FDD7736A010E746EB3EC9E
:1039B00005F0010E6F6E706E63EC09F0566A56509A
:1039C000ACEC00F0000905E0562A6E6E74EC09F0CC
:1039D000F6D7010E6F6E020E706E63EC09F0566A38
:1039E000565004EC01F0000905E0562A6E6E74ECA6
:1039F00009F0F6D73FD1968084B0A2D05550020886
:103A0000D8B49ED0968084A0FDD7736A010E746EE0
:103A1000B3EC05F0010E6F6E706E63EC09F0566A40
:103A200056502EEC02F0000905E0562A6E6E74EC3A
:103A300009F0F6D7010E6F6E020E706E63EC09F09E
:103A4000566A565003EC02F0000905E0562A6E6EE5
:103A500074EC09F0F6D70A0E6F6E020E706E63EC0E
:103A600009F055500108D8A06BD0968284B23AD0A4
:103A7000968284A2FDD7736A010E746EB3EC05F0D2
:103A8000010E6F6E706E63EC09F0566A565017ECBB
:103A900002F0562A006E6E6E74EC09F00D0E565C44
:103AA000F5E1890EE96E24C064F023C063F022C002
:103AB00062F021C061F0010E656EBFEC0EF0010EE8
:103AC0006F6E020E706E63EC09F0566A56502FEC62
:103AD00001F0000905E0562A6E6E74EC09F0F6D785
:103AE000556A2ED0555003E0010A14E022D097EC1D
:103AF00009F001C053F0535009080BE353C061F0C3
:103B00001B0E626EFFEC09F02E0E6E6E74EC09F067
:103B1000552A0FD097EC09F001C054F05450090811
:103B200007E354C061F01B0E626EFFEC09F0552AEA
:103B300000D05DEC0CF0322C02D0D0EC13F091D719
:103B4000968084B090D055500208D8A48CD096802E
:103B500084A0FDD75350040805E2535005084DE1F9
:103B600054524BE1626A54C061F0CCEC0DF0CD0EC2
:103B7000716ECC0E706E4C0E6F6E7B0E6E6E03C04F
:103B800075F002C074F001C073F000C072F0E8EC90
:103B90000DF000C056F001C057F002C058F003C04D
:103BA00059F0626A53C061F0CCEC0DF0D892186AFB
:103BB000F2BE188EF29E03C07EF002C07DF001C0FE
:103BC0007CF000C07BF059C082F058C081F057C033
:103BD00080F056C07FF0DCEC03F018BEF28E03C01C
:103BE00024F002C023F001C022F000C021F00A0E30
:103BF000756E7DEC05F0F9EC13F0556A736A010EF1
:103C0000746EB3EC05F0010E6F6E706E63EC09F02C
:103C1000566A565017EC02F0562A006E6E6E74EC1F
:103C200009F00D0E565CF5E1890EE96E24C064F0D2
:103C300023C063F022C062F021C061F0010E656E06
:103C4000BFEC0EF0010E6F6E020E706E63EC09F0A9
:103C5000566A56502FEC01F0000905E0562A6E6EA8
:103C600074EC09F0F6D75DEC0CF0322C02D0D0ECFD
:103C700013F094D6C2EF1EF0526AD190736A010E0F
:103C8000746EB3EC05F0010E6F6E706E63EC09F0AC
:103C9000536A5350ACEC00F0000905E0532A6E6EF5
:103CA00074EC09F0F6D7010E6F6E020E706E63ECC5
:103CB00009F0536A5350C2EC00F0000905E0532AA2
:103CC0006E6E74EC09F0F6D7938281A2FDD79682CE
:103CD00084B201D05ED0928880B842D0928880A809
:103CE000FDD7522A010E6F6E020E706E63EC09F062
:103CF000010E525CFC0F34E2040FD3EF1EF0536A46
:103D00005350D8EC00F0000905E0532A6E6E74ECB5
:103D100009F0F6D725D0536A5350EEEC00F00009B5
:103D200005E0532A6E6E74EC09F0F6D719D0536A89
:103D3000535004EC01F0000905E0532A6E6E74EC58
:103D400009F0F6D70DD0536A5350C2EC00F00009C9
:103D500005E0532A6E6E74EC09F0F6D7526A00D073
:103D6000968084B00FD0968084A0FDD75250FC0F6F
:103D700009E2040FE9EF1EF0BAEF16F045EF19F073
:103D800033D4D6D55DEC0CF0322C02D0D0EC13F04D
:103D90009ED7316AD1805DEC0CF082EC0FF0D9EC4B
:103DA00011F005EF20F0F2CF0EF0F29EE824CB0FD9
:103DB000F66E3D0EF76ED8B0F72A0A00F550FA6E8F
:103DC0000800F5500EBEF28EF96EFE3C163D2E3DFB
:103DD000463DF2CF0EF0F29EE824F70FF66E3D0E50
:103DE000F76ED8B0F72A0A00F550FA6E0800F550C1
:103DF0000EBEF28EF96E783D7C3D803D823DF86AC4
:103E0000D09E0D8EEA6AE96AB896190EAF6E220E40
:103E1000AC6E900EAB6EC150C00B0F09C16E070E99
:103E2000B46EF19CF19AC00EF212F288F0869D8079
:103E3000C150C00B0F09C16EC290880ED56EB50E71
:103E4000CD6E000ECA6E000ECB6E070EB46E925091
:103E50000400060E006E002EFED7B450A19CFE0E8C
:103E6000B56E978AC150C00B0B09C16EC050C00B14
:103E70000209C06EC09EC2803C0ECF6EB00ECE6EE8
:103E8000D3EF05F0736A010E746EB3EC05F0526A5D
:103E9000525065EC03F0000905E0522A9EA8FED7B7
:103EA000AD6EF6D7FDEC06F0526A52508DEC03F081
:103EB000000905E0522A6E6E74EC09F0F6D7010E87
:103EC0006F6E020E706E63EC09F0526A525082EC13
:103ED00001F0000905E0522A6E6E74EC09F0F6D785
:103EE0000A0E6F6E020E706E63EC09F0356A355083
:103EF00003084FE33550FC0F4BE2040F38EF20F07E
:103F000097EC09F001C036F0365002080FE336C0D6
:103F100061F01B0E626EFFEC09F0352A3650020884
:103F200003E1040E346E02D00A0E346E31D097ECE9
:103F300009F001C037F03450375C0BE237C061F054
:103F40001B0E626EFFEC09F03A0E6E6E74EC09F017
:103F5000352A1ED097EC09F001C038F0385005081A
:103F600007E338C061F01B0E626EFFEC09F0352AE2
:103F70000FD097EC09F001C039F03950090807E378
:103F800039C061F01B0E626EFFEC09F0352A00D0DB
:103F9000AED7316A326A336A36500A0DF35037248D
:103FA000466E38500A0DF3503924456E32EF0AF050
:103FB000536A440E526E37EF0AF0686A040E696E57
:103FC00063EC06F0080E686E900E696E63EC06F006
:103FD0001E0E756E7DEC05F0736A010E746EB3EC07
:103FE00005F0736A020E746EB3EC05F05DEC0CF034
:103FF000312C01D007D0322C01D004D082EC0FF04C
:10400000D9EC11F0312C01D037D6322C02D0D0ECC3
:1040100013F0186AF2BE188EF29E28C07EF027C0F8
:104020007DF026C07CF025C07BF0826B816B806BBD
:104030007F6AA1EC03F018BEF28E01E217E1186A64
:10404000F2BE188EF29E2CC07EF02BC07DF02AC0EE
:104050007CF029C07BF0826B816B806B7F6AA1EC66
:1040600003F018BEF28E01E201E10300BFD70300A6
:10407000F2CF0EF0F29EE824950FF66E400EF76E2A
:10408000D8B0F72A0A00F550FA6E0800F5500EBEB7
:0C409000F28EF96E003F2E3F543F723F4D
:020000040030CA
:0E00000000021E1F008381000FC00FE00F40A2
:00000001FF
;PIC18F4520
